{
  "contractName": "Pet",
  "abi": [
    {
      "inputs": [],
      "stateMutability": "nonpayable",
      "type": "constructor"
    },
    {
      "anonymous": false,
      "inputs": [
        {
          "indexed": true,
          "internalType": "address",
          "name": "owner",
          "type": "address"
        },
        {
          "indexed": true,
          "internalType": "address",
          "name": "approved",
          "type": "address"
        },
        {
          "indexed": true,
          "internalType": "uint256",
          "name": "tokenId",
          "type": "uint256"
        }
      ],
      "name": "Approval",
      "type": "event"
    },
    {
      "anonymous": false,
      "inputs": [
        {
          "indexed": true,
          "internalType": "address",
          "name": "owner",
          "type": "address"
        },
        {
          "indexed": true,
          "internalType": "address",
          "name": "operator",
          "type": "address"
        },
        {
          "indexed": false,
          "internalType": "bool",
          "name": "approved",
          "type": "bool"
        }
      ],
      "name": "ApprovalForAll",
      "type": "event"
    },
    {
      "anonymous": false,
      "inputs": [
        {
          "indexed": false,
          "internalType": "uint256",
          "name": "tokenId",
          "type": "uint256"
        },
        {
          "indexed": false,
          "internalType": "string",
          "name": "imageURL",
          "type": "string"
        },
        {
          "indexed": false,
          "internalType": "uint256",
          "name": "date",
          "type": "uint256"
        },
        {
          "indexed": false,
          "internalType": "address payable",
          "name": "from",
          "type": "address"
        }
      ],
      "name": "PetNFTCreated",
      "type": "event"
    },
    {
      "anonymous": false,
      "inputs": [
        {
          "indexed": true,
          "internalType": "address",
          "name": "from",
          "type": "address"
        },
        {
          "indexed": true,
          "internalType": "address",
          "name": "to",
          "type": "address"
        },
        {
          "indexed": true,
          "internalType": "uint256",
          "name": "tokenId",
          "type": "uint256"
        }
      ],
      "name": "Transfer",
      "type": "event"
    },
    {
      "inputs": [
        {
          "internalType": "address",
          "name": "to",
          "type": "address"
        },
        {
          "internalType": "uint256",
          "name": "tokenId",
          "type": "uint256"
        }
      ],
      "name": "approve",
      "outputs": [],
      "stateMutability": "nonpayable",
      "type": "function"
    },
    {
      "inputs": [
        {
          "internalType": "address",
          "name": "owner",
          "type": "address"
        }
      ],
      "name": "balanceOf",
      "outputs": [
        {
          "internalType": "uint256",
          "name": "",
          "type": "uint256"
        }
      ],
      "stateMutability": "view",
      "type": "function",
      "constant": true
    },
    {
      "inputs": [
        {
          "internalType": "uint256",
          "name": "tokenId",
          "type": "uint256"
        }
      ],
      "name": "getApproved",
      "outputs": [
        {
          "internalType": "address",
          "name": "",
          "type": "address"
        }
      ],
      "stateMutability": "view",
      "type": "function",
      "constant": true
    },
    {
      "inputs": [
        {
          "internalType": "address",
          "name": "owner",
          "type": "address"
        },
        {
          "internalType": "address",
          "name": "operator",
          "type": "address"
        }
      ],
      "name": "isApprovedForAll",
      "outputs": [
        {
          "internalType": "bool",
          "name": "",
          "type": "bool"
        }
      ],
      "stateMutability": "view",
      "type": "function",
      "constant": true
    },
    {
      "inputs": [],
      "name": "name",
      "outputs": [
        {
          "internalType": "string",
          "name": "",
          "type": "string"
        }
      ],
      "stateMutability": "view",
      "type": "function",
      "constant": true
    },
    {
      "inputs": [
        {
          "internalType": "uint256",
          "name": "tokenId",
          "type": "uint256"
        }
      ],
      "name": "ownerOf",
      "outputs": [
        {
          "internalType": "address",
          "name": "",
          "type": "address"
        }
      ],
      "stateMutability": "view",
      "type": "function",
      "constant": true
    },
    {
      "inputs": [
        {
          "internalType": "address",
          "name": "from",
          "type": "address"
        },
        {
          "internalType": "address",
          "name": "to",
          "type": "address"
        },
        {
          "internalType": "uint256",
          "name": "tokenId",
          "type": "uint256"
        }
      ],
      "name": "safeTransferFrom",
      "outputs": [],
      "stateMutability": "nonpayable",
      "type": "function"
    },
    {
      "inputs": [
        {
          "internalType": "address",
          "name": "from",
          "type": "address"
        },
        {
          "internalType": "address",
          "name": "to",
          "type": "address"
        },
        {
          "internalType": "uint256",
          "name": "tokenId",
          "type": "uint256"
        },
        {
          "internalType": "bytes",
          "name": "data",
          "type": "bytes"
        }
      ],
      "name": "safeTransferFrom",
      "outputs": [],
      "stateMutability": "nonpayable",
      "type": "function"
    },
    {
      "inputs": [
        {
          "internalType": "address",
          "name": "operator",
          "type": "address"
        },
        {
          "internalType": "bool",
          "name": "approved",
          "type": "bool"
        }
      ],
      "name": "setApprovalForAll",
      "outputs": [],
      "stateMutability": "nonpayable",
      "type": "function"
    },
    {
      "inputs": [],
      "name": "symbol",
      "outputs": [
        {
          "internalType": "string",
          "name": "",
          "type": "string"
        }
      ],
      "stateMutability": "view",
      "type": "function",
      "constant": true
    },
    {
      "inputs": [
        {
          "internalType": "uint256",
          "name": "index",
          "type": "uint256"
        }
      ],
      "name": "tokenByIndex",
      "outputs": [
        {
          "internalType": "uint256",
          "name": "",
          "type": "uint256"
        }
      ],
      "stateMutability": "view",
      "type": "function",
      "constant": true
    },
    {
      "inputs": [
        {
          "internalType": "address",
          "name": "owner",
          "type": "address"
        },
        {
          "internalType": "uint256",
          "name": "index",
          "type": "uint256"
        }
      ],
      "name": "tokenOfOwnerByIndex",
      "outputs": [
        {
          "internalType": "uint256",
          "name": "",
          "type": "uint256"
        }
      ],
      "stateMutability": "view",
      "type": "function",
      "constant": true
    },
    {
      "inputs": [],
      "name": "totalSupply",
      "outputs": [
        {
          "internalType": "uint256",
          "name": "",
          "type": "uint256"
        }
      ],
      "stateMutability": "view",
      "type": "function",
      "constant": true
    },
    {
      "inputs": [
        {
          "internalType": "address",
          "name": "from",
          "type": "address"
        },
        {
          "internalType": "address",
          "name": "to",
          "type": "address"
        },
        {
          "internalType": "uint256",
          "name": "tokenId",
          "type": "uint256"
        }
      ],
      "name": "transferFrom",
      "outputs": [],
      "stateMutability": "nonpayable",
      "type": "function"
    },
    {
      "inputs": [
        {
          "internalType": "string",
          "name": "_tokenURI",
          "type": "string"
        }
      ],
      "name": "mintPetNFT",
      "outputs": [],
      "stateMutability": "nonpayable",
      "type": "function"
    },
    {
      "inputs": [
        {
          "internalType": "uint256",
          "name": "tokenId",
          "type": "uint256"
        }
      ],
      "name": "tokenURI",
      "outputs": [
        {
          "internalType": "string",
          "name": "",
          "type": "string"
        }
      ],
      "stateMutability": "view",
      "type": "function",
      "constant": true
    },
    {
      "inputs": [
        {
          "internalType": "bytes4",
          "name": "interfaceId",
          "type": "bytes4"
        }
      ],
      "name": "supportsInterface",
      "outputs": [
        {
          "internalType": "bool",
          "name": "",
          "type": "bool"
        }
      ],
      "stateMutability": "view",
      "type": "function",
      "constant": true
    }
  ],
  "bytecode": "0x60806040523480156200001157600080fd5b506040518060400160405280600381526020017f50657400000000000000000000000000000000000000000000000000000000008152506040518060400160405280600381526020017f504554000000000000000000000000000000000000000000000000000000000081525081600090816200008f919062000324565b508060019081620000a1919062000324565b5050506200040b565b600081519050919050565b7f4e487b7100000000000000000000000000000000000000000000000000000000600052604160045260246000fd5b7f4e487b7100000000000000000000000000000000000000000000000000000000600052602260045260246000fd5b600060028204905060018216806200012c57607f821691505b602082108103620001425762000141620000e4565b5b50919050565b60008190508160005260206000209050919050565b60006020601f8301049050919050565b600082821b905092915050565b600060088302620001ac7fffffffffffffffffffffffffffffffffffffffffffffffffffffffffffffffff826200016d565b620001b886836200016d565b95508019841693508086168417925050509392505050565b6000819050919050565b6000819050919050565b600062000205620001ff620001f984620001d0565b620001da565b620001d0565b9050919050565b6000819050919050565b6200022183620001e4565b6200023962000230826200020c565b8484546200017a565b825550505050565b600090565b6200025062000241565b6200025d81848462000216565b505050565b5b8181101562000285576200027960008262000246565b60018101905062000263565b5050565b601f821115620002d4576200029e8162000148565b620002a9846200015d565b81016020851015620002b9578190505b620002d1620002c8856200015d565b83018262000262565b50505b505050565b600082821c905092915050565b6000620002f960001984600802620002d9565b1980831691505092915050565b6000620003148383620002e6565b9150826002028217905092915050565b6200032f82620000aa565b67ffffffffffffffff8111156200034b576200034a620000b5565b5b62000357825462000113565b6200036482828562000289565b600060209050601f8311600181146200039c576000841562000387578287015190505b62000393858262000306565b86555062000403565b601f198416620003ac8662000148565b60005b82811015620003d657848901518255600182019150602085019450602081019050620003af565b86831015620003f65784890151620003f2601f891682620002e6565b8355505b6001600288020188555050505b505050505050565b6135cd806200041b6000396000f3fe608060405234801561001057600080fd5b506004361061010b5760003560e01c80634f6ccce7116100a2578063a22cb46511610071578063a22cb465146102de578063b88d4fde146102fa578063ba53565414610316578063c87b56dd14610332578063e985e9c5146103625761010b565b80634f6ccce7146102305780636352211e1461026057806370a082311461029057806395d89b41146102c05761010b565b806318160ddd116100de57806318160ddd146101aa57806323b872dd146101c85780632f745c59146101e457806342842e0e146102145761010b565b806301ffc9a71461011057806306fdde0314610140578063081812fc1461015e578063095ea7b31461018e575b600080fd5b61012a600480360381019061012591906121b7565b610392565b60405161013791906121ff565b60405180910390f35b6101486103a4565b60405161015591906122aa565b60405180910390f35b61017860048036038101906101739190612302565b610436565b6040516101859190612370565b60405180910390f35b6101a860048036038101906101a391906123b7565b61047c565b005b6101b2610593565b6040516101bf9190612406565b60405180910390f35b6101e260048036038101906101dd9190612421565b6105a0565b005b6101fe60048036038101906101f991906123b7565b610600565b60405161020b9190612406565b60405180910390f35b61022e60048036038101906102299190612421565b6106a5565b005b61024a60048036038101906102459190612302565b6106c5565b6040516102579190612406565b60405180910390f35b61027a60048036038101906102759190612302565b610736565b6040516102879190612370565b60405180910390f35b6102aa60048036038101906102a59190612474565b6107bc565b6040516102b79190612406565b60405180910390f35b6102c8610873565b6040516102d591906122aa565b60405180910390f35b6102f860048036038101906102f391906124cd565b610905565b005b610314600480360381019061030f9190612642565b61091b565b005b610330600480360381019061032b9190612766565b61097d565b005b61034c60048036038101906103479190612302565b6109e8565b60405161035991906122aa565b60405180910390f35b61037c600480360381019061037791906127af565b6109fa565b60405161038991906121ff565b60405180910390f35b600061039d82610a8e565b9050919050565b6060600080546103b39061281e565b80601f01602080910402602001604051908101604052809291908181526020018280546103df9061281e565b801561042c5780601f106104015761010080835404028352916020019161042c565b820191906000526020600020905b81548152906001019060200180831161040f57829003601f168201915b5050505050905090565b600061044182610b08565b6004600083815260200190815260200160002060009054906101000a900473ffffffffffffffffffffffffffffffffffffffff169050919050565b600061048782610736565b90508073ffffffffffffffffffffffffffffffffffffffff168373ffffffffffffffffffffffffffffffffffffffff16036104f7576040517f08c379a00000000000000000000000000000000000000000000000000000000081526004016104ee906128c1565b60405180910390fd5b8073ffffffffffffffffffffffffffffffffffffffff16610516610b53565b73ffffffffffffffffffffffffffffffffffffffff16148061054557506105448161053f610b53565b6109fa565b5b610584576040517f08c379a000000000000000000000000000000000000000000000000000000000815260040161057b90612953565b60405180910390fd5b61058e8383610b5b565b505050565b6000600980549050905090565b6105b16105ab610b53565b82610c14565b6105f0576040517f08c379a00000000000000000000000000000000000000000000000000000000081526004016105e7906129e5565b60405180910390fd5b6105fb838383610ca9565b505050565b600061060b836107bc565b821061064c576040517f08c379a000000000000000000000000000000000000000000000000000000000815260040161064390612a77565b60405180910390fd5b600760008473ffffffffffffffffffffffffffffffffffffffff1673ffffffffffffffffffffffffffffffffffffffff168152602001908152602001600020600083815260200190815260200160002054905092915050565b6106c08383836040518060200160405280600081525061091b565b505050565b60006106cf610593565b8210610710576040517f08c379a000000000000000000000000000000000000000000000000000000000815260040161070790612b09565b60405180910390fd5b6009828154811061072457610723612b29565b5b90600052602060002001549050919050565b60008061074283610fa2565b9050600073ffffffffffffffffffffffffffffffffffffffff168173ffffffffffffffffffffffffffffffffffffffff16036107b3576040517f08c379a00000000000000000000000000000000000000000000000000000000081526004016107aa90612ba4565b60405180910390fd5b80915050919050565b60008073ffffffffffffffffffffffffffffffffffffffff168273ffffffffffffffffffffffffffffffffffffffff160361082c576040517f08c379a000000000000000000000000000000000000000000000000000000000815260040161082390612c36565b60405180910390fd5b600360008373ffffffffffffffffffffffffffffffffffffffff1673ffffffffffffffffffffffffffffffffffffffff168152602001908152602001600020549050919050565b6060600180546108829061281e565b80601f01602080910402602001604051908101604052809291908181526020018280546108ae9061281e565b80156108fb5780601f106108d0576101008083540402835291602001916108fb565b820191906000526020600020905b8154815290600101906020018083116108de57829003601f168201915b5050505050905090565b610917610910610b53565b8383610fdf565b5050565b61092c610926610b53565b83610c14565b61096b576040517f08c379a0000000000000000000000000000000000000000000000000000000008152600401610962906129e5565b60405180910390fd5b6109778484848461114b565b50505050565b600061099161098a610593565b60016111a7565b905061099d33826111bd565b6109a781836111db565b7f87b775753367289ca3e232032eee8d6eeccbe8aa93d9bc9f9db865d3d2b388ea818342336040516109dc9493929190612c77565b60405180910390a15050565b60606109f382611248565b9050919050565b6000600560008473ffffffffffffffffffffffffffffffffffffffff1673ffffffffffffffffffffffffffffffffffffffff16815260200190815260200160002060008373ffffffffffffffffffffffffffffffffffffffff1673ffffffffffffffffffffffffffffffffffffffff16815260200190815260200160002060009054906101000a900460ff16905092915050565b60007f780e9d63000000000000000000000000000000000000000000000000000000007bffffffffffffffffffffffffffffffffffffffffffffffffffffffff1916827bffffffffffffffffffffffffffffffffffffffffffffffffffffffff19161480610b015750610b008261135a565b5b9050919050565b610b118161143c565b610b50576040517f08c379a0000000000000000000000000000000000000000000000000000000008152600401610b4790612ba4565b60405180910390fd5b50565b600033905090565b816004600083815260200190815260200160002060006101000a81548173ffffffffffffffffffffffffffffffffffffffff021916908373ffffffffffffffffffffffffffffffffffffffff160217905550808273ffffffffffffffffffffffffffffffffffffffff16610bce83610736565b73ffffffffffffffffffffffffffffffffffffffff167f8c5be1e5ebec7d5bd14f71427d1e84f3dd0314c0f7b2291e5b200ac8c7c3b92560405160405180910390a45050565b600080610c2083610736565b90508073ffffffffffffffffffffffffffffffffffffffff168473ffffffffffffffffffffffffffffffffffffffff161480610c625750610c6181856109fa565b5b80610ca057508373ffffffffffffffffffffffffffffffffffffffff16610c8884610436565b73ffffffffffffffffffffffffffffffffffffffff16145b91505092915050565b8273ffffffffffffffffffffffffffffffffffffffff16610cc982610736565b73ffffffffffffffffffffffffffffffffffffffff1614610d1f576040517f08c379a0000000000000000000000000000000000000000000000000000000008152600401610d1690612d35565b60405180910390fd5b600073ffffffffffffffffffffffffffffffffffffffff168273ffffffffffffffffffffffffffffffffffffffff1603610d8e576040517f08c379a0000000000000000000000000000000000000000000000000000000008152600401610d8590612dc7565b60405180910390fd5b610d9b838383600161147d565b8273ffffffffffffffffffffffffffffffffffffffff16610dbb82610736565b73ffffffffffffffffffffffffffffffffffffffff1614610e11576040517f08c379a0000000000000000000000000000000000000000000000000000000008152600401610e0890612d35565b60405180910390fd5b6004600082815260200190815260200160002060006101000a81549073ffffffffffffffffffffffffffffffffffffffff02191690556001600360008573ffffffffffffffffffffffffffffffffffffffff1673ffffffffffffffffffffffffffffffffffffffff168152602001908152602001600020600082825403925050819055506001600360008473ffffffffffffffffffffffffffffffffffffffff1673ffffffffffffffffffffffffffffffffffffffff16815260200190815260200160002060008282540192505081905550816002600083815260200190815260200160002060006101000a81548173ffffffffffffffffffffffffffffffffffffffff021916908373ffffffffffffffffffffffffffffffffffffffff160217905550808273ffffffffffffffffffffffffffffffffffffffff168473ffffffffffffffffffffffffffffffffffffffff167fddf252ad1be2c89b69c2b068fc378daa952ba7f163c4a11628f55a4df523b3ef60405160405180910390a4610f9d838383600161148f565b505050565b60006002600083815260200190815260200160002060009054906101000a900473ffffffffffffffffffffffffffffffffffffffff169050919050565b8173ffffffffffffffffffffffffffffffffffffffff168373ffffffffffffffffffffffffffffffffffffffff160361104d576040517f08c379a000000000000000000000000000000000000000000000000000000000815260040161104490612e33565b60405180910390fd5b80600560008573ffffffffffffffffffffffffffffffffffffffff1673ffffffffffffffffffffffffffffffffffffffff16815260200190815260200160002060008473ffffffffffffffffffffffffffffffffffffffff1673ffffffffffffffffffffffffffffffffffffffff16815260200190815260200160002060006101000a81548160ff0219169083151502179055508173ffffffffffffffffffffffffffffffffffffffff168373ffffffffffffffffffffffffffffffffffffffff167f17307eab39ab6107e8899845ad3d59bd9653f200f220920489ca2b5937696c318360405161113e91906121ff565b60405180910390a3505050565b611156848484610ca9565b61116284848484611495565b6111a1576040517f08c379a000000000000000000000000000000000000000000000000000000000815260040161119890612ec5565b60405180910390fd5b50505050565b600081836111b59190612f14565b905092915050565b6111d782826040518060200160405280600081525061161c565b5050565b6111e48261143c565b611223576040517f08c379a000000000000000000000000000000000000000000000000000000000815260040161121a90612fba565b60405180910390fd5b806006600084815260200190815260200160002090816112439190613186565b505050565b606061125382610b08565b60006006600084815260200190815260200160002080546112739061281e565b80601f016020809104026020016040519081016040528092919081815260200182805461129f9061281e565b80156112ec5780601f106112c1576101008083540402835291602001916112ec565b820191906000526020600020905b8154815290600101906020018083116112cf57829003601f168201915b5050505050905060006112fd611677565b90506000815103611312578192505050611355565b60008251111561134757808260405160200161132f929190613294565b60405160208183030381529060405292505050611355565b6113508461168e565b925050505b919050565b60007f80ac58cd000000000000000000000000000000000000000000000000000000007bffffffffffffffffffffffffffffffffffffffffffffffffffffffff1916827bffffffffffffffffffffffffffffffffffffffffffffffffffffffff1916148061142557507f5b5e139f000000000000000000000000000000000000000000000000000000007bffffffffffffffffffffffffffffffffffffffffffffffffffffffff1916827bffffffffffffffffffffffffffffffffffffffffffffffffffffffff1916145b806114355750611434826116f6565b5b9050919050565b60008073ffffffffffffffffffffffffffffffffffffffff1661145e83610fa2565b73ffffffffffffffffffffffffffffffffffffffff1614159050919050565b61148984848484611760565b50505050565b50505050565b60006114b68473ffffffffffffffffffffffffffffffffffffffff166118be565b1561160f578373ffffffffffffffffffffffffffffffffffffffff1663150b7a026114df610b53565b8786866040518563ffffffff1660e01b8152600401611501949392919061330d565b6020604051808303816000875af192505050801561153d57506040513d601f19601f8201168201806040525081019061153a919061336e565b60015b6115bf573d806000811461156d576040519150601f19603f3d011682016040523d82523d6000602084013e611572565b606091505b5060008151036115b7576040517f08c379a00000000000000000000000000000000000000000000000000000000081526004016115ae90612ec5565b60405180910390fd5b805181602001fd5b63150b7a0260e01b7bffffffffffffffffffffffffffffffffffffffffffffffffffffffff1916817bffffffffffffffffffffffffffffffffffffffffffffffffffffffff191614915050611614565b600190505b949350505050565b61162683836118e1565b6116336000848484611495565b611672576040517f08c379a000000000000000000000000000000000000000000000000000000000815260040161166990612ec5565b60405180910390fd5b505050565b606060405180602001604052806000815250905090565b606061169982610b08565b60006116a3611677565b905060008151116116c357604051806020016040528060008152506116ee565b806116cd84611afe565b6040516020016116de929190613294565b6040516020818303038152906040525b915050919050565b60007f01ffc9a7000000000000000000000000000000000000000000000000000000007bffffffffffffffffffffffffffffffffffffffffffffffffffffffff1916827bffffffffffffffffffffffffffffffffffffffffffffffffffffffff1916149050919050565b61176c84848484611bcc565b60018111156117b0576040517f08c379a00000000000000000000000000000000000000000000000000000000081526004016117a79061340d565b60405180910390fd5b6000829050600073ffffffffffffffffffffffffffffffffffffffff168573ffffffffffffffffffffffffffffffffffffffff16036117f7576117f281611cf2565b611836565b8373ffffffffffffffffffffffffffffffffffffffff168573ffffffffffffffffffffffffffffffffffffffff1614611835576118348582611d3b565b5b5b600073ffffffffffffffffffffffffffffffffffffffff168473ffffffffffffffffffffffffffffffffffffffff16036118785761187381611ea8565b6118b7565b8473ffffffffffffffffffffffffffffffffffffffff168473ffffffffffffffffffffffffffffffffffffffff16146118b6576118b58482611f79565b5b5b5050505050565b6000808273ffffffffffffffffffffffffffffffffffffffff163b119050919050565b600073ffffffffffffffffffffffffffffffffffffffff168273ffffffffffffffffffffffffffffffffffffffff1603611950576040517f08c379a000000000000000000000000000000000000000000000000000000000815260040161194790613479565b60405180910390fd5b6119598161143c565b15611999576040517f08c379a0000000000000000000000000000000000000000000000000000000008152600401611990906134e5565b60405180910390fd5b6119a760008383600161147d565b6119b08161143c565b156119f0576040517f08c379a00000000000000000000000000000000000000000000000000000000081526004016119e7906134e5565b60405180910390fd5b6001600360008473ffffffffffffffffffffffffffffffffffffffff1673ffffffffffffffffffffffffffffffffffffffff16815260200190815260200160002060008282540192505081905550816002600083815260200190815260200160002060006101000a81548173ffffffffffffffffffffffffffffffffffffffff021916908373ffffffffffffffffffffffffffffffffffffffff160217905550808273ffffffffffffffffffffffffffffffffffffffff16600073ffffffffffffffffffffffffffffffffffffffff167fddf252ad1be2c89b69c2b068fc378daa952ba7f163c4a11628f55a4df523b3ef60405160405180910390a4611afa60008383600161148f565b5050565b606060006001611b0d84611ff8565b01905060008167ffffffffffffffff811115611b2c57611b2b612517565b5b6040519080825280601f01601f191660200182016040528015611b5e5781602001600182028036833780820191505090505b509050600082602001820190505b600115611bc1578080600190039150507f3031323334353637383961626364656600000000000000000000000000000000600a86061a8153600a8581611bb557611bb4613505565b5b04945060008503611b6c575b819350505050919050565b6001811115611cec57600073ffffffffffffffffffffffffffffffffffffffff168473ffffffffffffffffffffffffffffffffffffffff1614611c605780600360008673ffffffffffffffffffffffffffffffffffffffff1673ffffffffffffffffffffffffffffffffffffffff1681526020019081526020016000206000828254611c589190613534565b925050819055505b600073ffffffffffffffffffffffffffffffffffffffff168373ffffffffffffffffffffffffffffffffffffffff1614611ceb5780600360008573ffffffffffffffffffffffffffffffffffffffff1673ffffffffffffffffffffffffffffffffffffffff1681526020019081526020016000206000828254611ce39190612f14565b925050819055505b5b50505050565b600980549050600a600083815260200190815260200160002081905550600981908060018154018082558091505060019003906000526020600020016000909190919091505550565b60006001611d48846107bc565b611d529190613534565b9050600060086000848152602001908152602001600020549050818114611e37576000600760008673ffffffffffffffffffffffffffffffffffffffff1673ffffffffffffffffffffffffffffffffffffffff168152602001908152602001600020600084815260200190815260200160002054905080600760008773ffffffffffffffffffffffffffffffffffffffff1673ffffffffffffffffffffffffffffffffffffffff168152602001908152602001600020600084815260200190815260200160002081905550816008600083815260200190815260200160002081905550505b6008600084815260200190815260200160002060009055600760008573ffffffffffffffffffffffffffffffffffffffff1673ffffffffffffffffffffffffffffffffffffffff16815260200190815260200160002060008381526020019081526020016000206000905550505050565b60006001600980549050611ebc9190613534565b90506000600a6000848152602001908152602001600020549050600060098381548110611eec57611eeb612b29565b5b906000526020600020015490508060098381548110611f0e57611f0d612b29565b5b906000526020600020018190555081600a600083815260200190815260200160002081905550600a6000858152602001908152602001600020600090556009805480611f5d57611f5c613568565b5b6001900381819060005260206000200160009055905550505050565b6000611f84836107bc565b905081600760008573ffffffffffffffffffffffffffffffffffffffff1673ffffffffffffffffffffffffffffffffffffffff168152602001908152602001600020600083815260200190815260200160002081905550806008600084815260200190815260200160002081905550505050565b600080600090507a184f03e93ff9f4daa797ed6e38ed64bf6a1f0100000000000000008310612056577a184f03e93ff9f4daa797ed6e38ed64bf6a1f010000000000000000838161204c5761204b613505565b5b0492506040810190505b6d04ee2d6d415b85acef81000000008310612093576d04ee2d6d415b85acef8100000000838161208957612088613505565b5b0492506020810190505b662386f26fc1000083106120c257662386f26fc1000083816120b8576120b7613505565b5b0492506010810190505b6305f5e10083106120eb576305f5e10083816120e1576120e0613505565b5b0492506008810190505b612710831061211057612710838161210657612105613505565b5b0492506004810190505b60648310612133576064838161212957612128613505565b5b0492506002810190505b600a8310612142576001810190505b80915050919050565b6000604051905090565b600080fd5b600080fd5b60007fffffffff0000000000000000000000000000000000000000000000000000000082169050919050565b6121948161215f565b811461219f57600080fd5b50565b6000813590506121b18161218b565b92915050565b6000602082840312156121cd576121cc612155565b5b60006121db848285016121a2565b91505092915050565b60008115159050919050565b6121f9816121e4565b82525050565b600060208201905061221460008301846121f0565b92915050565b600081519050919050565b600082825260208201905092915050565b60005b83811015612254578082015181840152602081019050612239565b60008484015250505050565b6000601f19601f8301169050919050565b600061227c8261221a565b6122868185612225565b9350612296818560208601612236565b61229f81612260565b840191505092915050565b600060208201905081810360008301526122c48184612271565b905092915050565b6000819050919050565b6122df816122cc565b81146122ea57600080fd5b50565b6000813590506122fc816122d6565b92915050565b60006020828403121561231857612317612155565b5b6000612326848285016122ed565b91505092915050565b600073ffffffffffffffffffffffffffffffffffffffff82169050919050565b600061235a8261232f565b9050919050565b61236a8161234f565b82525050565b60006020820190506123856000830184612361565b92915050565b6123948161234f565b811461239f57600080fd5b50565b6000813590506123b18161238b565b92915050565b600080604083850312156123ce576123cd612155565b5b60006123dc858286016123a2565b92505060206123ed858286016122ed565b9150509250929050565b612400816122cc565b82525050565b600060208201905061241b60008301846123f7565b92915050565b60008060006060848603121561243a57612439612155565b5b6000612448868287016123a2565b9350506020612459868287016123a2565b925050604061246a868287016122ed565b9150509250925092565b60006020828403121561248a57612489612155565b5b6000612498848285016123a2565b91505092915050565b6124aa816121e4565b81146124b557600080fd5b50565b6000813590506124c7816124a1565b92915050565b600080604083850312156124e4576124e3612155565b5b60006124f2858286016123a2565b9250506020612503858286016124b8565b9150509250929050565b600080fd5b600080fd5b7f4e487b7100000000000000000000000000000000000000000000000000000000600052604160045260246000fd5b61254f82612260565b810181811067ffffffffffffffff8211171561256e5761256d612517565b5b80604052505050565b600061258161214b565b905061258d8282612546565b919050565b600067ffffffffffffffff8211156125ad576125ac612517565b5b6125b682612260565b9050602081019050919050565b82818337600083830152505050565b60006125e56125e084612592565b612577565b90508281526020810184848401111561260157612600612512565b5b61260c8482856125c3565b509392505050565b600082601f8301126126295761262861250d565b5b81356126398482602086016125d2565b91505092915050565b6000806000806080858703121561265c5761265b612155565b5b600061266a878288016123a2565b945050602061267b878288016123a2565b935050604061268c878288016122ed565b925050606085013567ffffffffffffffff8111156126ad576126ac61215a565b5b6126b987828801612614565b91505092959194509250565b600067ffffffffffffffff8211156126e0576126df612517565b5b6126e982612260565b9050602081019050919050565b6000612709612704846126c5565b612577565b90508281526020810184848401111561272557612724612512565b5b6127308482856125c3565b509392505050565b600082601f83011261274d5761274c61250d565b5b813561275d8482602086016126f6565b91505092915050565b60006020828403121561277c5761277b612155565b5b600082013567ffffffffffffffff81111561279a5761279961215a565b5b6127a684828501612738565b91505092915050565b600080604083850312156127c6576127c5612155565b5b60006127d4858286016123a2565b92505060206127e5858286016123a2565b9150509250929050565b7f4e487b7100000000000000000000000000000000000000000000000000000000600052602260045260246000fd5b6000600282049050600182168061283657607f821691505b602082108103612849576128486127ef565b5b50919050565b7f4552433732313a20617070726f76616c20746f2063757272656e74206f776e6560008201527f7200000000000000000000000000000000000000000000000000000000000000602082015250565b60006128ab602183612225565b91506128b68261284f565b604082019050919050565b600060208201905081810360008301526128da8161289e565b9050919050565b7f4552433732313a20617070726f76652063616c6c6572206973206e6f7420746f60008201527f6b656e206f776e6572206f7220617070726f76656420666f7220616c6c000000602082015250565b600061293d603d83612225565b9150612948826128e1565b604082019050919050565b6000602082019050818103600083015261296c81612930565b9050919050565b7f4552433732313a2063616c6c6572206973206e6f7420746f6b656e206f776e6560008201527f72206f7220617070726f76656400000000000000000000000000000000000000602082015250565b60006129cf602d83612225565b91506129da82612973565b604082019050919050565b600060208201905081810360008301526129fe816129c2565b9050919050565b7f455243373231456e756d657261626c653a206f776e657220696e646578206f7560008201527f74206f6620626f756e6473000000000000000000000000000000000000000000602082015250565b6000612a61602b83612225565b9150612a6c82612a05565b604082019050919050565b60006020820190508181036000830152612a9081612a54565b9050919050565b7f455243373231456e756d657261626c653a20676c6f62616c20696e646578206f60008201527f7574206f6620626f756e64730000000000000000000000000000000000000000602082015250565b6000612af3602c83612225565b9150612afe82612a97565b604082019050919050565b60006020820190508181036000830152612b2281612ae6565b9050919050565b7f4e487b7100000000000000000000000000000000000000000000000000000000600052603260045260246000fd5b7f4552433732313a20696e76616c696420746f6b656e2049440000000000000000600082015250565b6000612b8e601883612225565b9150612b9982612b58565b602082019050919050565b60006020820190508181036000830152612bbd81612b81565b9050919050565b7f4552433732313a2061646472657373207a65726f206973206e6f74206120766160008201527f6c6964206f776e65720000000000000000000000000000000000000000000000602082015250565b6000612c20602983612225565b9150612c2b82612bc4565b604082019050919050565b60006020820190508181036000830152612c4f81612c13565b9050919050565b6000612c618261232f565b9050919050565b612c7181612c56565b82525050565b6000608082019050612c8c60008301876123f7565b8181036020830152612c9e8186612271565b9050612cad60408301856123f7565b612cba6060830184612c68565b95945050505050565b7f4552433732313a207472616e736665722066726f6d20696e636f72726563742060008201527f6f776e6572000000000000000000000000000000000000000000000000000000602082015250565b6000612d1f602583612225565b9150612d2a82612cc3565b604082019050919050565b60006020820190508181036000830152612d4e81612d12565b9050919050565b7f4552433732313a207472616e7366657220746f20746865207a65726f2061646460008201527f7265737300000000000000000000000000000000000000000000000000000000602082015250565b6000612db1602483612225565b9150612dbc82612d55565b604082019050919050565b60006020820190508181036000830152612de081612da4565b9050919050565b7f4552433732313a20617070726f766520746f2063616c6c657200000000000000600082015250565b6000612e1d601983612225565b9150612e2882612de7565b602082019050919050565b60006020820190508181036000830152612e4c81612e10565b9050919050565b7f4552433732313a207472616e7366657220746f206e6f6e20455243373231526560008201527f63656976657220696d706c656d656e7465720000000000000000000000000000602082015250565b6000612eaf603283612225565b9150612eba82612e53565b604082019050919050565b60006020820190508181036000830152612ede81612ea2565b9050919050565b7f4e487b7100000000000000000000000000000000000000000000000000000000600052601160045260246000fd5b6000612f1f826122cc565b9150612f2a836122cc565b9250828201905080821115612f4257612f41612ee5565b5b92915050565b7f45524337323155524953746f726167653a2055524920736574206f66206e6f6e60008201527f6578697374656e7420746f6b656e000000000000000000000000000000000000602082015250565b6000612fa4602e83612225565b9150612faf82612f48565b604082019050919050565b60006020820190508181036000830152612fd381612f97565b9050919050565b60008190508160005260206000209050919050565b60006020601f8301049050919050565b600082821b905092915050565b60006008830261303c7fffffffffffffffffffffffffffffffffffffffffffffffffffffffffffffffff82612fff565b6130468683612fff565b95508019841693508086168417925050509392505050565b6000819050919050565b600061308361307e613079846122cc565b61305e565b6122cc565b9050919050565b6000819050919050565b61309d83613068565b6130b16130a98261308a565b84845461300c565b825550505050565b600090565b6130c66130b9565b6130d1818484613094565b505050565b5b818110156130f5576130ea6000826130be565b6001810190506130d7565b5050565b601f82111561313a5761310b81612fda565b61311484612fef565b81016020851015613123578190505b61313761312f85612fef565b8301826130d6565b50505b505050565b600082821c905092915050565b600061315d6000198460080261313f565b1980831691505092915050565b6000613176838361314c565b9150826002028217905092915050565b61318f8261221a565b67ffffffffffffffff8111156131a8576131a7612517565b5b6131b2825461281e565b6131bd8282856130f9565b600060209050601f8311600181146131f057600084156131de578287015190505b6131e8858261316a565b865550613250565b601f1984166131fe86612fda565b60005b8281101561322657848901518255600182019150602085019450602081019050613201565b86831015613243578489015161323f601f89168261314c565b8355505b6001600288020188555050505b505050505050565b600081905092915050565b600061326e8261221a565b6132788185613258565b9350613288818560208601612236565b80840191505092915050565b60006132a08285613263565b91506132ac8284613263565b91508190509392505050565b600081519050919050565b600082825260208201905092915050565b60006132df826132b8565b6132e981856132c3565b93506132f9818560208601612236565b61330281612260565b840191505092915050565b60006080820190506133226000830187612361565b61332f6020830186612361565b61333c60408301856123f7565b818103606083015261334e81846132d4565b905095945050505050565b6000815190506133688161218b565b92915050565b60006020828403121561338457613383612155565b5b600061339284828501613359565b91505092915050565b7f455243373231456e756d657261626c653a20636f6e736563757469766520747260008201527f616e7366657273206e6f7420737570706f727465640000000000000000000000602082015250565b60006133f7603583612225565b91506134028261339b565b604082019050919050565b60006020820190508181036000830152613426816133ea565b9050919050565b7f4552433732313a206d696e7420746f20746865207a65726f2061646472657373600082015250565b6000613463602083612225565b915061346e8261342d565b602082019050919050565b6000602082019050818103600083015261349281613456565b9050919050565b7f4552433732313a20746f6b656e20616c7265616479206d696e74656400000000600082015250565b60006134cf601c83612225565b91506134da82613499565b602082019050919050565b600060208201905081810360008301526134fe816134c2565b9050919050565b7f4e487b7100000000000000000000000000000000000000000000000000000000600052601260045260246000fd5b600061353f826122cc565b915061354a836122cc565b925082820390508181111561356257613561612ee5565b5b92915050565b7f4e487b7100000000000000000000000000000000000000000000000000000000600052603160045260246000fdfea264697066735822122042998c4fed34598d7af3fc3208fa237969556d0d0f5c671727cabef888a3d4b464736f6c63430008110033",
  "immutableReferences": {},
  "source": "// contracts/Pet.sol\r\n// SPDX-License-Identifier: MIT\r\n\r\npragma solidity >=0.4.0 <0.9.0;\r\n\r\nimport \"@openzeppelin/contracts/token/ERC721/ERC721.sol\";\r\nimport \"@openzeppelin/contracts/token/ERC721/extensions/ERC721URIStorage.sol\";\r\nimport \"@openzeppelin/contracts/token/ERC721/extensions/ERC721Enumerable.sol\";\r\nimport \"@openzeppelin/contracts/utils/math/SafeMath.sol\";\r\n\r\ncontract Pet is ERC721, ERC721URIStorage, ERC721Enumerable {\r\n   constructor() ERC721(\"Pet\", \"PET\")  {}\r\n\r\n   event PetNFTCreated (\r\n\r\n    uint tokenId,\r\n    string imageURL,\r\n    uint date,\r\n    address payable from\r\n  );\r\n\r\n   function mintPetNFT(string memory _tokenURI) external {\r\n       uint _tokenId = SafeMath.add(totalSupply(), 1);\r\n       _safeMint(msg.sender, _tokenId);\r\n       _setTokenURI(_tokenId, _tokenURI);\r\n       emit PetNFTCreated(_tokenId, _tokenURI, block.timestamp, payable(msg.sender));\r\n    }\r\n\r\n\r\nfunction _beforeTokenTransfer(address from, address to, uint256 tokenId, uint256 batchSize)\r\n        internal\r\n        override(ERC721, ERC721Enumerable)\r\n    {\r\n        super._beforeTokenTransfer(from, to, tokenId, batchSize);\r\n    }\r\n\r\n    function _burn(uint256 tokenId) internal override(ERC721, ERC721URIStorage) {\r\n        super._burn(tokenId);\r\n    }\r\n\r\n    function tokenURI(uint256 tokenId)\r\n        public\r\n        view\r\n        override(ERC721, ERC721URIStorage)\r\n        returns (string memory)\r\n    {\r\n        return super.tokenURI(tokenId);\r\n    }\r\n\r\n    function supportsInterface(bytes4 interfaceId)\r\n        public\r\n        view\r\n        override(ERC721, ERC721Enumerable)\r\n        returns (bool)\r\n    {\r\n        return super.supportsInterface(interfaceId);\r\n    }\r\n}",
  "sourcePath": "C:\\Users\\pecul\\Desktop\\DEV\\petpaw\\petpaw\\contracts\\Pet.sol",
  "compiler": {
    "name": "solc",
    "version": "0.8.17+commit.8df45f5f.Emscripten.clang"
  },
  "schemaVersion": "3.4.11",
  "updatedAt": "2023-01-22T15:43:37.291Z",
  "networkType": "ethereum",
  "devdoc": {
    "kind": "dev",
    "methods": {
      "approve(address,uint256)": {
        "details": "See {IERC721-approve}."
      },
      "balanceOf(address)": {
        "details": "See {IERC721-balanceOf}."
      },
      "getApproved(uint256)": {
        "details": "See {IERC721-getApproved}."
      },
      "isApprovedForAll(address,address)": {
        "details": "See {IERC721-isApprovedForAll}."
      },
      "name()": {
        "details": "See {IERC721Metadata-name}."
      },
      "ownerOf(uint256)": {
        "details": "See {IERC721-ownerOf}."
      },
      "safeTransferFrom(address,address,uint256)": {
        "details": "See {IERC721-safeTransferFrom}."
      },
      "safeTransferFrom(address,address,uint256,bytes)": {
        "details": "See {IERC721-safeTransferFrom}."
      },
      "setApprovalForAll(address,bool)": {
        "details": "See {IERC721-setApprovalForAll}."
      },
      "symbol()": {
        "details": "See {IERC721Metadata-symbol}."
      },
      "tokenByIndex(uint256)": {
        "details": "See {IERC721Enumerable-tokenByIndex}."
      },
      "tokenOfOwnerByIndex(address,uint256)": {
        "details": "See {IERC721Enumerable-tokenOfOwnerByIndex}."
      },
      "totalSupply()": {
        "details": "See {IERC721Enumerable-totalSupply}."
      },
      "transferFrom(address,address,uint256)": {
        "details": "See {IERC721-transferFrom}."
      }
    },
    "version": 1
  },
  "userdoc": {
    "kind": "user",
    "methods": {},
    "version": 1
  }
}